:100000000C94E0000C9408010C9408010C94080175
:100010000C9408010C9408010C9408010C9408013C
:100020000C9408010C9408010C9408010C9408012C
:100030000C9408010C9408010C9408010C9408011C
:100040000C94AC120C9408010C941C130C94F61232
:100050000C9408010C9408010C9408010C940801FC
:100060000C944E130C94080100407A10F35A00A02F
:10007000724E18090010A5D4E80000E87648170071
:1000800000E40B54020000CA9A3B000000E1F505B1
:10009000000080969800000040420F000000A086FB
:1000A00001000000102700000000E803000000002D
:1000B0006400000000000A000000000001000000D1
:1000C00000002C76D888DC674F0823DFC1DFAE59EB
:1000D000E1B1B796E5E3E453C63AE651997696E87E
:1000E000E6C28426EB898C9B62ED407C6FFCEFBC02
:1000F0009C9F40F2BAA56FA5F490055A2AF75C932D
:100100006B6CF9676DC11BFCE0E40D47FEF520E662
:10011000B500D0ED902E0300943577050080841E45
:10012000080000204E0A000000C80C333333330FA0
:10013000986E12831141EF8D2114893BE65516CF3D
:10014000FEE6DB18D1844B381BF77C1D901DA4BB49
:10015000E424203284725E228100C9F124ECA1E5FE
:100160003D270000000023002600290000000000B9
:10017000240027002A0000000000250028002B0092
:10018000040404040404040402020202020203033D
:100190000303030301020408102040800102040845
:1001A00010200102040810200000000800020100D5
:1001B000000304070000000000000000B214C72282
:1001C00011241FBECFEFD8E0DEBFCDBF14E0A0E00A
:1001D000B1E0E8E9F9E502C005900D92AC30B10755
:1001E000D9F726E0ACE0B4E001C01D92AE37B2070B
:1001F000E1F710E0CFEDD0E004C02197FE010E94AE
:100200000E27CE3DD107C9F70E94BC150C94BF2C18
:100210000C94000008950895609126066F7070E0B8
:1002200090E080E0982F872F762F66272091270671
:10023000622B982F872F762F662720912806622B16
:100240000E942E2520E030E040E855E30E948F25F3
:1002500020E030E048E453E40E948F2520E030E0C5
:1002600048E452E40E9414270895809186049091F6
:100270008704891B990B08950F931F93609124069F
:10028000709125067627672776278B0130E020E0DE
:1002900084E0000F111F221F331F8A95D1F7809130
:1002A000260690E044E0959587954A95E1F7092E5A
:1002B000000CAA0BBB0BBC01CD01602B712B822B58
:1002C000932B0E942E2520E030E040E855E30E9469
:1002D0008F2520E030E048EC52E40E948F251F91EA
:1002E0000F91089590E0FC01E855FE4F2491FC0128
:1002F000EC56FE4F3491FC01E058FE4FE491EE23A2
:10030000C9F0222339F0233001F1A8F4213019F18A
:10031000223029F1F0E0EE0FFF1FEA58FE4FA591C1
:10032000B4918FB7F894EC91611126C030953E23BB
:100330003C938FBF08952730A9F02830C9F02430AE
:1003400049F7809180008F7D03C0809180008F7776
:1003500080938000DFCF84B58F7784BDDBCF84B5F9
:100360008F7DFBCF8091B0008F778093B000D2CF8C
:100370008091B0008F7DF9CF3E2BDACFFC018385D1
:100380008F3F19F061E00C9472010895FC018081A7
:100390009181892B39F0A281B3819C9111968C9126
:1003A0009CBD8DBD83858F3F19F060E00C94720178
:1003B0000895CF93DF9390E0FC01EC56FE4F24911B
:1003C00080589E4FFC0184918823C9F090E0880FEB
:1003D000991FFC01E459FE4FA591B491FC01EA5824
:1003E000FE4FC591D49161110DC09FB7F8948C91C7
:1003F000209582238C938881282328839FBFDF91B7
:10040000CF910895623051F49FB7F8943C91822FB8
:10041000809583238C93E8812E2BEFCF8FB7F894B0
:10042000EC912E2B2C938FBFEACF8E50806480935B
:100430007C0080917A00806480937A0080917A00B9
:1004400086FDFCCF809178009091790008958230EC
:10045000910538F0880F991F880F991F059701970C
:10046000F1F70895BF92CF92DF92EF92FF920F9330
:100470001F93CF93DF93EC0188819981892B81F0C1
:100480006EBD0DB407FEFDCF0EB5802FDF91CF916D
:100490001F910F91FF90EF90DF90CF90BF90089544
:1004A0008885998511E0892B09F010E8BB24B39465
:1004B000862F812309F0B12CF62E2C813D814E81AF
:1004C0005F8160E271EA87E090E00E94AE26E22E52
:1004D00000E0C22ED12CEE2019F0C6010E942702A6
:1004E0008A85982F977F09F044C08D858F3F89F0CA
:1004F0009F2D912381E009F480E08B1551F0EF8569
:10050000F8898F89992379F19081892B8083BB2485
:10051000B394E989FA898081998D892B8083EE20B3
:1005200019F0C6010E9427028E858F3F39F0EB89B2
:10053000FC898081988D892309F0012BE989FA894A
:100540009081898D80958923808388859985892BE1
:1005500009F067C0110F1111BECF8E858F3F09F0D2
:1005600094CF0F2D92CF9081809589238083B12CD9
:10057000D0CF8C3099F58D858F3F49F0EF85F88984
:100580008F899F2D912331F19081892B8083E98977
:10059000FA899081898D809589238083EE2019F0D6
:1005A000C6010E942702E989FA898081998D892BE9
:1005B0008083EE2019F0C6010E9427028E858F3FAE
:1005C00021F2EB89FC898081988D892309F4BDCFC4
:1005D000012BBBCF908180958923D8CFE989FA89F7
:1005E0008081998D892B8083EE2019F0C6010E94AD
:1005F00027028D858F3F49F0EF85F8898F899F2DE0
:10060000912359F09081892B8083E989FA8990811F
:10061000898D809589238083D1CF9081809589238E
:10062000F3CF169598CF8F929F92AF92BF92CF92B1
:10063000DF92EF92FF920F931F93CF93DF937C0192
:100640004B016A01B22EA32E0E94C601E401C80C20
:10065000D91CCC15DD0569F4CB2DDA2D0C0F1D1F2F
:10066000C017D10759F06FEFC7010E94320289937A
:10067000F7CF6991C7010E943202EBCFC7010E94F8
:10068000BE0181E0DF91CF911F910F91FF90EF901C
:10069000DF90CF90BF90AF909F908F9008958F92F2
:1006A0009F92AF92BF92CF92DF92EF92FF920F9301
:1006B0001F93CF93DF937C01B62EA72E6A014901C9
:1006C0000E94C601E401080D191DC017D10761F48D
:1006D000CB2DDA2DCC0EDD1ECC15DD0551F0699148
:1006E000C7010E943202F8CF6991C7010E9432020D
:1006F000ECCFC7010E94BE0181E0DF91CF911F9135
:100700000F91FF90EF90DF90CF90BF90AF909F90B0
:100710008F9008953FB7F89480917D0490917E0466
:10072000A0917F04B091800426B5A89B05C02F3FFF
:1007300019F00196A11DB11D3FBFBA2FA92F982F07
:100740008827BC01CD01620F711D811D911D42E002
:10075000660F771F881F991F4A95D1F708958F92CA
:100760009F92AF92BF92CF92DF92EF92FF926B0176
:100770007C010E948A034B015C01C114D104E10495
:10078000F104B9F00E948A03681979098A099B0962
:10079000683E73408105910580F321E0C21AD108BB
:1007A000E108F10888EE880E83E0981EA11CB11CB8
:1007B000E4CFFF90EF90DF90CF90BF90AF909F90ED
:1007C0008F9008952FB7F8946091790470917A040E
:1007D00080917B0490917C042FBF08950895DB01E4
:1007E00014964D915C9115976D917C91DC01ED9182
:1007F000FC910280F381E02D0994AF92BF92CF92D9
:10080000DF92EF92FF920F931F93CF93DF936C01D0
:100810007B018B01040F151FEB015E01AE18BF08B1
:10082000C017D10759F06991D601ED91FC91019063
:10083000F081E02DC6010995892B79F7C501DF917B
:10084000CF911F910F91FF90EF90DF90CF90BF90CD
:10085000AF900895FC01538D448D252F30E0842FF7
:1008600090E0821B930B541710F0CF9608950197D8
:100870000895FC01918D828D981761F0A28DAE0FC5
:10088000BF2FB11D5D968C91928D9F5F9F73928F4C
:1008900090E008958FEF9FEF0895FC01918D828D78
:1008A000981731F0828DE80FF11D858D90E0089545
:1008B0008FEF9FEF0895FC01918D228D892F90E09D
:1008C000805C9F4F821B91098F739927089588ED53
:1008D00094E00E945B0421E0892B09F420E0822F40
:1008E000089580E090E0892B29F00E94670481112F
:1008F0000C9400000895FC01A48DA80FB92FB11D20
:10090000A35ABF4F2C91848D90E001968F73992745
:10091000848FA689B7892C93A089B1898C91837023
:1009200080648C93938D848D981306C00288F3891C
:10093000E02D80818F7D80830895EF92FF920F9349
:100940001F93CF93DF93EC0181E0888F9B8D8C8D7B
:1009500098131AC0E889F989808185FF15C09FB76F
:10096000F894EE89FF896083E889F9898081837032
:10097000806480839FBF81E090E0DF91CF911F91E1
:100980000F91FF90EF900895F62E0B8D10E00F5F02
:100990001F4F0F731127E02E8C8D8E110CC00FB6D8
:1009A00007FCFACFE889F989808185FFF5CFCE0170
:1009B0000E947B04F1CFEB8DEC0FFD2FF11DE35A6C
:1009C000FF4FF0829FB7F8940B8FEA89FB898081F3
:1009D0008062CFCFCF93DF93EC01888D8823B9F06D
:1009E000AA89BB89E889F9898C9185FD03C080813A
:1009F00086FD0DC00FB607FCF7CF8C9185FFF2CFB7
:100A0000808185FFEDCFCE010E947B04E9CFDF918D
:100A1000CF910895DC01ED91FC910190F081E02DE2
:100A2000099420914D04260F3327331F21323105BD
:100A3000ECF42091AE04FC0190E080E0243069F0F9
:100A400082E00895A0914D042191AC01435D5B4F7C
:100A5000A40FB52FB11D2C930196861798F38091A2
:100A60004D04680F60934D0480E0089581E008957F
:100A70001092AE0481E08093AD041092880461E08E
:100A800082E10E94720161E083E10E947201E9EB60
:100A9000F0E080818E7F808380818D7F808388E4F9
:100AA0008093B80085E48093BC0008951092870479
:100AB000109286041092B5041092D7040E94380553
:100AC0008AE091E090938504809384048BE091E028
:100AD00090938304809382040895CF93DF9391E0F1
:100AE00090932C048823B9F0C091B800D091BA003B
:100AF0008091BC008A7B8093BC0060E082E10E9410
:100B0000720160E083E10E9472010E943805D09377
:100B1000BA00C093B800DF91CF9108958F929F9251
:100B2000AF92BF92CF92DF92EF92FF920F931F93FB
:100B3000CF93DF93D091D704D13208F0D7C0182FCC
:100B4000C091D6040E948A036B017C018091AE049F
:100B500081116BC082E08093AE041093AD048FEFDF
:100B60008093AC041092AB04D093AA04A6EBB4E03B
:100B7000EAE8F4E080E0D81391C0109289048091F3
:100B80008904CC0FC82BC0938904809188048130DC
:100B900009F088C0109288040E948A036B017C01CE
:100BA000809189048093BB008091B0049091B1043E
:100BB000A091B204B091B304892B8A2B8B2BA1F0A6
:100BC0000E948A030091B0041091B1042091B204F4
:100BD0003091B3046C197D098E099F090617170718
:100BE0002807390708F442C08091BC0083FDD8CFA4
:100BF00085EC8093BC000E948A036B017C0180918C
:100C0000AE04823009F450C08091AC048F3F09F4E7
:100C10006FC08091AC04803209F46CC08091AC0448
:100C2000803309F469C084E026C08091B0049091BB
:100C3000B104A091B204B091B304892B8A2B8B2B01
:100C400009F484CF0E948A038090B0049090B1048C
:100C5000A090B204B090B3046C197D098E099F096D
:100C600086169706A806B90608F070CF8091AF04E3
:100C70000E946D0585E01092B5041092D704109281
:100C8000B404DF91CF911F910F91FF90EF90DF900F
:100C9000CF90BF90AF909F908F9008959D9191932A
:100CA0008F5F69CF85EEA5CF8091B0049091B1049C
:100CB000A091B204B091B304892B8A2B8B2B09F439
:100CC0009ECF0E948A030091B0041091B10420913C
:100CD000B2043091B3046C197D098E099F0906177F
:100CE00017072807390708F08ACFC0CF81E0C3CFA4
:100CF00080E0C1CF82E0BFCF83E0BDCF1F93CF9311
:100D0000DF93EA01122FDC0111968D919C91DC0199
:100D1000ED91FC910280F381E02D0995C817D90768
:100D200029F4812F0E948E0591E0811190E0892F96
:100D3000DF91CF911F910895AF92BF92CF92DF9232
:100D4000EF92FF920F931F93CF93DF9300D0CDB715
:100D5000DEB7DC01211103C01A962C911A972530B9
:100D600008F043C051964D935D936D937C935497D7
:100D700090E080E0E22EF12C8E159F05B4F41C96D5
:100D80002C911C9721110AC0FD01E80FF91F45871E
:100D9000452F562F672F77270196EECFF701E81BD7
:100DA000F90BEA0FFB1F4487F3CF6D018DE0C80EEE
:100DB000D11C18969C91189719968C911997998324
:100DC0008A83AD90BC901197A114B10409F441C07D
:100DD0001B960C9110E098012E0D3F1DD501149625
:100DE0008D919C918217930710F480E016C0F50155
:100DF00081819281208131E03093B4042093D60424
:100E00001092B5041092D7040115110599F421E050
:100E1000A701B601C5010E947E060F900F90DF91D9
:100E2000CF911F910F91FF90EF90DF90CF90BF90E7
:100E3000AF900895DC01ED91FC910280F381E02DEB
:100E4000A801BE016F5F7F4F09950817190769F662
:100E5000DECF1296ED91FC911397309749F11696DB
:100E60002D913C9117971B960C9110E02330310582
:100E700071F48E7F89839A830F5F1F4F9E012F5FCE
:100E80003F4FA701B601CF010E944F03C6CF2115E6
:100E9000310519F49F779983F1CF2230310511F490
:100EA0009068F9CF2130310549F79F779064F3CFEF
:100EB0001496ED91FC911597309709F496CF8085A3
:100EC000882309F492CFA680B780A114B10409F455
:100ED0008CCF870196011B964C91BE016F5F7F4FAF
:100EE00081859285F501099598CFCF93DF93EC0129
:100EF0008B818823A1F0888191E09093B404809342
:100F0000D6041092B5041092D70481E00E948E0599
:100F100091E0811190E0892FDF91CF9108950E9497
:100F2000560581E08B83CE010E947507982F8111B1
:100F3000E2CFF1CFFC01248131E03093B40420935F
:100F4000D6041092B5041092D7048385682B70E004
:100F500085E795E00E940A0581E00C948E050895CE
:100F6000E091870480918604E81730F4F0E0E45FB4
:100F7000FB4F808190E008958FEF9FEF089590914F
:100F80008704809186042FEF3FEF981748F4E92FEC
:100F9000F0E0E45FFB4F208130E09F5F9093870497
:100FA000C9010895CF92DF92EF92FF920F931F93A2
:100FB000CF93DF937C01CB018A012091B4042223DB
:100FC00089F0EB016B01C40ED51ECC15DD0569F06F
:100FD0006991D701ED91FC910190F081E02DC7015D
:100FE0000995F3CF642F0E941105C801DF91CF91BD
:100FF0001F910F91FF90EF90DF90CF900895CF93C6
:10100000DF931F92CDB7DEB769832091B40422230A
:10101000F9F02091D704203258F021E030E0FC01B3
:101020003383228390E080E00F90DF91CF91089589
:101030008091B504E82FF0E0EA54FB4F998190834A
:101040008F5F8093B5048093D70481E090E0ECCF6C
:1010500061E0CE0101960E941105F7CF90E080E09B
:1010600008950F931F93CF938C01C62F0E949A0768
:101070006C2F6460C8010E949A076C2F6B7FC801B7
:101080000E949A0783EC90E00197F1F7CF911F91AE
:101090000F9108950F931F93CF93DF938C01D62F59
:1010A000C42F607F642B0E94310880E1D89FB0017B
:1010B00011246C2BC801DF91CF911F910F910C94DB
:1010C000310841E00E944A0881E090E00895CF9302
:1010D000DF93CDB7DEB728970FB6F894DEBF0FBE0B
:1010E000CDBF28E0E6E0F1E0DE01119601900D921F
:1010F0002A95E1F7FC012185241708F44FEF50E011
:10110000440F551F21E030E02C0F3D1F420F531FAD
:10111000FA012081620F606840E028960FB6F894CB
:10112000DEBF0FBECDBFDF91CF910C944A0840E0E7
:1011300061E00E944A088BE39FE10197F1F708956F
:101140008F929F92AF92BF92CF92DF92EF92FF92D7
:101150000F931F93CF93DF93D62FC42F122F0E948C
:101160008A036B017C018091AE04811168C0C13299
:1011700008F0C0E281E08093AE041093AD049FEFCD
:101180009093AC041092AB049C0F9093AA048093AC
:10119000890480918904DD0FD82BD0938904809134
:1011A0008804813009F083C0109288040E948A0369
:1011B0006B017C01809189048093BB008091B00415
:1011C0009091B104A091B204B091B304892B8A2B01
:1011D0008B2BA1F00E948A030091B0041091B104FE
:1011E0002091B2043091B3046C197D098E099F09D6
:1011F000061717072807390708F442C08091BC007A
:1012000083FDD8CF85EC8093BC000E948A036B01DC
:101210007C018091AE04813009F44BC08091AB0415
:101220008C1710F4C091AB04EAE8F4E0ACE0B4E051
:1012300080E08C1751F191919D938F5FFACF80914F
:10124000B0049091B104A091B204B091B304892B81
:101250008A2B8B2B09F487CF0E948A038090B004DD
:101260009090B104A090B204B090B3046C197D09C1
:101270008E099F0986169706A806B90608F073CF4F
:101280008091AF040E946D05C0E010928704C09366
:1012900086048C2FDF91CF911F910F91FF90EF90DB
:1012A000DF90CF90BF90AF909F908F90089585EE84
:1012B000AACF8091B0049091B104A091B204B091F2
:1012C000B304892B8A2B8B2B09F4A3CF0E948A03AA
:1012D0000091B0041091B1042091B2043091B30494
:1012E0006C197D098E099F0906171707280739070A
:1012F00008F08FCFC5CF8F929F92AF92BF92CF92BF
:10130000DF92EF92FF920F931F93CF93DF93809121
:10131000210691E09093B4048093D6041092B50412
:101320001092D7046CEA70E085E795E00E940A0508
:1013300063E370E085E795E00E940A0570E060E0F5
:1013400085E795E00E940A0581E00E948E058823CA
:1013500021F082E0809322069EC06AE070E080E087
:1013600090E00E94AF0321E041E06091210685E713
:1013700095E00E94A0088091860490918704891BC3
:10138000990B019711F083E0E5CF85E795E00E9486
:10139000BF0780932306881F8827881F8093220613
:1013A000813009F075C066E470E080E090E00E9452
:1013B000AF0380912006C7E0811101C0C6E021E0A3
:1013C0004C2F6091210685E795E00E94A008D0E0AF
:1013D0008091860490918704891B990BC817D907BF
:1013E00091F603E216E06801F12CE12C0E94E20381
:1013F00060937D0570937E0580937F0590938005B3
:1014000085E795E00E94BF0797FF57C00E94E2035F
:1014100080907D0590907E05A0907F05B09080051E
:10142000681979098A099B098090790590907A0555
:10143000A0907B05B0907C05681579058A059B0511
:10144000F8F28091230687FF33C081E08093220663
:101450008091220681111FC0809120068130D9F42D
:1014600029E236E08FEF41E3F80191918F0189275E
:1014700098E087FF20C0880F84279150D1F720176C
:10148000310791F790912906981729F084E062CFEF
:10149000882309F48ECFDF91CF911F910F91FF9098
:1014A000EF90DF90CF90BF90AF909F908F90089576
:1014B00010922206CDCF880FE0CFF60181936F0105
:1014C000FFEFEF1AFF0AEC16FD0608F48FCFB9CF35
:1014D000CF93DF9381E08093B40488E68093D604B1
:1014E0001092B5041092D70460E085E795E00E9461
:1014F000FF0781E00E948E05882321F080E0DF91C4
:10150000CF91089521E047E068E685E795E00E94E5
:10151000A0088091860490918704891B990B0797F6
:101520006CF385E795E00E94BF07C82F982F92952E
:101530009770DAE08C2F8F709D9F800D112480931F
:10154000730685E795E00E94BF07982F92959F70DC
:101550008F709D9F800D11248093740685E795E020
:101560000E94BF07982F929593708F709D9F800D5A
:1015700011248093750685E795E00E94BF07982F98
:1015800092959F708F709D9F800D11248093760699
:1015900085E795E00E94BF07982F92959F708F7006
:1015A0009D9F800D11248093770685E795E00E942A
:1015B000BF07982F92959F708F709D9F800D11246B
:1015C0008093780685E795E00E94BF07982F9F706B
:1015D000925E82958F708D9F900D11249093790665
:1015E0008C2F8095881F8827881F89CF2F923F9244
:1015F0004F925F926F927F928F929F92AF92BF9223
:10160000CF92DF92EF92FF920F931F93CF93DF93CE
:1016100000D0CDB7DEB77C01DC011A960C914C01ED
:10162000BDE08B0E911CFC019085818599838A8396
:10163000C080D180C114D10409F460C0438550E05A
:10164000D60114968D919C9115978417950708F4EF
:10165000C8C08C9191E09093B4048093D60410920A
:10166000B5041092D70420E0BE016F5F7F4FC60122
:101670000E947E06882309F4B4C0602E712CB12C20
:10168000A12CA614B70408F05AC0F60184819581F4
:1016900083010A191B098017910708F48C0121E0C6
:1016A000C301801B910BA816B90608F420E0402F57
:1016B000D6016C9111968D919C910E94A008801783
:1016C000110609F08EC024014A0C5B1C1201C101F5
:1016D000841995098017910770F4F6018181928130
:1016E000DC01ED91FC910284F385E02D0995F10177
:1016F00081931F01ECCFA00EB11EC3CFD701028092
:10170000F381E02D309709F44AC016962D913C9153
:10171000179710E01B964C9150E02330310579F576
:10172000816089839A834F5F5F4F9401BE016F5F31
:101730007F4FCF010E941303882309F452C0D701C1
:101740001A964C9150E030E020E060E070E0CB0170
:10175000241735070CF048C0982F872F762F66275F
:10176000D7011C96EC91E11137C0FA01E21BF30B93
:10177000EE0DFF1DE4856E2B2F5F3F4FE9CF211546
:10178000310519F490689983D0CF2230310511F4D6
:101790009F77F9CF2130310541F6906CF4CFF701F6
:1017A000A481B5811097E9F018968C911897882339
:1017B000C1F01496CD90DC901597C114D10489F036
:1017C00010E094014385BE016F5F7F4F19968D91A4
:1017D0009C91F6010995B0CFF701E20FF31FE58563
:1017E000CACF6FEF7FEFCB010F900F90DF91CF91BA
:1017F0001F910F91FF90EF90DF90CF90BF90AF902F
:101800009F908F907F906F905F904F903F902F9020
:101810000895CF93DF93C0911606D0911706888163
:1018200099810E94F60AAB01BC012A8181E090E017
:1018300002C0880F991F2A95E2F70197092E000C24
:10184000AA0BBB0B2B8104C07695679557954795DE
:101850002A95D2F784238D3058F4E82FF0E0EE0F6C
:10186000FF1FE45DFE4F80819181DF91CF9108954C
:101870008FEF9FEFFACF8F929F92AF92BF92CF924E
:10188000DF92EF92FF92CF93DF93C090F205D0905A
:10189000F305E090F405F090F5058090FA0590903E
:1018A000FB05A090FC05B090FD050E94090CBC0151
:1018B000990F880B990B0E9430259B01AC01C50143
:1018C000B4010E948127A70196010E948F256B0118
:1018D0007C018090F6059090F705A090F805B090F7
:1018E000F905C0911806D0911906888199810E9446
:1018F000F60AAB01BC012A8181E090E002C0880FAA
:10190000991F2A95E2F70197092E000CAA0BBB0B31
:101910002B8104C076956795579547952A95D2F700
:10192000842320E030E040E85FEB843050F424E092
:10193000829FF0011124E45EFE4F208131814281BB
:101940005381C501B4010E948127A70196010E941D
:101950008F25DF91CF91FF90EF90DF90CF90BF90D8
:10196000AF909F908F900895CF92DF92EF92FF9269
:101970000F931F93882339F10E94090C880F991F38
:101980006C01990FEE08FF080E94E2030091FE052A
:101990001091FF052091000630910106DC01CB017A
:1019A000801B910BA20BB30B8C159D05AE05BF05DB
:1019B00050F4A7019601281B390B4A0B5B0BCA0197
:1019C000B9010E94AF030E94E2036093FE05709389
:1019D000FF05809300069093010680910406909184
:1019E00005060E94F60ACB011F910F91FF90EF9020
:1019F000DF90CF9008958F929F92AF92BF92CF9237
:101A0000DF92EF92FF920F931F93CF93DF93EC013E
:101A10004A015B01888199810E94F60A2A8101E0CE
:101A200010E002C0000F111F2A95E2F701501109C2
:101A3000012E000C220B330BAB81680179010A2EB9
:101A400004C0CC0CDD1CEE1CFF1C0A94D2F7C09421
:101A5000D094E094F094C622D722E822F922E881BB
:101A6000F981B901A801482159216A217B2104C0CB
:101A7000440F551F661F771FAA95D2F74C295D2981
:101A80006E297F292285CF01DF91CF911F910F9180
:101A9000FF90EF90DF90CF90BF90AF909F908F908E
:101AA0000C949C06FB0101900020E9F73197AF01EF
:101AB000461B570BDC01ED91FC910280F381E02D78
:101AC00009948F929F92AF92BF92EF92FF920F93E1
:101AD0001F93CF93DF93CDB7DEB7A1970FB6F894DE
:101AE000DEBF0FBECDBF7C01FA01CB0119A22230AF
:101AF00008F42AE08E010F5D1F4F822E912CB12C2D
:101B0000A12CBF01A50194010E94AE26F901CA01D2
:101B10006A300CF5605DD8016E938D01232B242B68
:101B2000252B79F790E080E0109721F0BD01C701E7
:101B30000E94520DA1960FB6F894DEBF0FBECDBF26
:101B4000DF91CF911F910F91FF90EF90BF90AF90D9
:101B50009F908F900895695CDECF242F462F50E030
:101B600070E060E00C94610DCF93DF93BC0188EDD1
:101B700094E00E94520DEC0166E771E088ED94E07C
:101B80000E94520D8C0F9D1FDF91CF910895CF932E
:101B9000DF93AB01682F88ED94E00E94AD0DEC015E
:101BA00066E771E088ED94E00E94520D8C0F9D1F56
:101BB000DF91CF9108952F923F924F925F926F9253
:101BC0007F928F929F92AF92BF92CF92DF92EF92CD
:101BD000FF921F93CF93DF93EC016A017B01722E7A
:101BE000AB019601CB01B6010E94272869E771E09D
:101BF000811126C046015701E894B7F82FEF3FEF57
:101C00004FE75FE7C501B4010E94272881110CC08E
:101C10002FEF3FEF4FE75FE7C501B4010E94292591
:101C20006DE771E0181664F02FEF3FEF4FE75FE4C8
:101C3000C701B6010E9422281816B4F461E871E0C9
:101C4000CE01DF91CF911F91FF90EF90DF90CF9069
:101C5000BF90AF909F908F907F906F905F904F90CC
:101C60003F902F900C94520D2FEF3FEF4FE75FEC1A
:101C7000C701B6010E94292587FDE0CF20E030E0B2
:101C8000A901C701B6010E942925312C212C87FF0B
:101C90000DC0E881F9810190F081E02D6DE2CE0167
:101CA00009951C01F7FAF094F7F8F09410E060E061
:101CB00070E080E09FE3711641F020E030E040E208
:101CC00051E40E9481271F5FF6CFA70196010E9471
:101CD00015272B013C010E94F3274B015C012AE0F0
:101CE000BC01A401CE010E94610D7C01E20CF31C39
:101CF0001123E1F1C501B4010E942E259B01AC0125
:101D0000C301B2010E9414274B015C01E881F981F3
:101D10000190F081E02D6EE2CE010995E80EF91EEA
:101D2000115020F120E030E040E251E4C501B4015F
:101D30000E948F252B013C010E94F3274B01B12CFF
:101D4000A12C2AE0B501A401CE010E94610DE80E8C
:101D5000F91EC501B4010E942E259B01AC01C301EF
:101D6000B2010E9414274B015C01DACFC701DF9159
:101D7000CF911F91FF90EF90DF90CF90BF90AF90E9
:101D80009F908F907F906F905F904F903F902F909B
:101D90000895CF93DF93AB01BC0122E088ED94E07E
:101DA0000E94DB0DEC0166E771E088ED94E00E9493
:101DB000520D8C0F9D1FDF91CF9108950C94520D01
:101DC0005F926F927F928F929F92AF92BF92CF92CB
:101DD000DF92EF92FF920F931F93CF93DF93882EA2
:101DE000E62E5A01722E809131068823C1F065E8F3
:101DF00071E088ED94E00E94DE0E40E150E0682D35
:101E000088ED94E00E94AD0D6AE971E088ED94E000
:101E10000E94DE0E60E170E08E2D0E94C70DC0E0D2
:101E200055245394F12CD72DDC1BD13208F0D0E28D
:101E300080912A0690912B065092B4048092D60489
:101E40001092B5041092D704B7016C0F711D0E9457
:101E50000A0581E00E948E05682E21E04D2F682D35
:101E600080912A0690912B060E94A00810E000E0C5
:101E7000CD2ED12C9C2E900E0C151D05A4F0CD0F4F
:101E8000C71588F2862DDF91CF911F910F91FF909A
:101E9000EF90DF90CF90BF90AF909F908F907F900A
:101EA0006F905F90089580912A0690912B06DC0137
:101EB000ED91FC910284F385E02D0995F501E90D82
:101EC000F11D80830F5F1F4FD5CF0F931F93CF93CB
:101ED000DF93082F162FEA0180913106882399F1AC
:101EE0006AEA71E088ED94E00E94DE0E40E150E085
:101EF000602F88ED94E00E94AD0D6AE971E088EDF5
:101F000094E00E94DE0E40E150E0612F88ED94E005
:101F10000E94AD0D60EC71E088ED94E00E94DE0E51
:101F200066EA71E088ED94E00E94DE0E40E150E048
:101F3000688188ED94E00E94AD0D66E771E088ED60
:101F400094E00E94520D80912A0690912B0621E088
:101F50002093B4040093D6041092B5041092D704D1
:101F6000DC01ED91FC910190F081E02D612F09954C
:101F700080912A0690912B06DC01ED91FC91028064
:101F8000F381E02D41E050E0BE01099581E0DF9151
:101F9000CF911F910F910C948E050F931F93CF93A8
:101FA000DF9300D01F92CDB7DEB7809162061A8210
:101FB000AE014E5F5F4F62E10E94650F8091620645
:101FC0009CEC9B83AE014D5F5F4F62E10E94650F09
:101FD000182F80913106882371F06FEC71E088ED45
:101FE00094E00E94DE0E8BEC91E0111102C08AE8B1
:101FF00092E00E94B40D6AE070E080E090E00E9400
:10200000AF0321E0AE014F5F5F4F60E28091620657
:102010000E94E00E098180913106882359F067EE15
:1020200071E088ED94E00E94DE0E60E170E0802FA8
:102030000E94C70D6AE070E080E090E00E94AF036C
:1020400081E0111180E00F900F900F90DF91CF9100
:102050001F910F910895CF93C82F0E94150261E040
:1020600072E08034914094F488ED94E00E94DE0E9A
:102070004AE050E06C2F88ED94E00E94AD0D8CE1B9
:1020800093E00E94B40D80E0CF91089588ED94E034
:102090000E94DE0E4AE050E06C2F88ED94E00E9432
:1020A000AD0D80E193E00E94B40D81E0EDCFCF92C1
:1020B000DF92EF92FF92F82E0E9415026C0161E010
:1020C00072E088ED94E00E94DE0E4AE050E06F2D51
:1020D00088ED94E00E94AD0D65E172E088ED94E03A
:1020E0000E94DE0E0D2C000CEE08FF082AE0B7015E
:1020F000A601F7FE0DC06DE288ED94E00E949D04FC
:1021000044275527BA014C195D096E097F092AE059
:1021100088ED94E00E94610D66E771E088ED94E03F
:102120000E94520DA7019601265D314041095109D7
:10213000A4E6B0E00E946C2628E83FEF4FEF5FEF87
:102140000E944D2637FD0BC02536310514F024E6DC
:1021500030E0822FFF90EF90DF90CF90089580E0E5
:10216000F9CFCF93DF93EC0188819981009711F02B
:102170000E94C828198218821D821C821B821A8222
:10218000DF91CF910895FC0180819181009711F03A
:102190000C94C82808950F931F93CF93DF93EC01FD
:1021A00088819981009759F02A813B81261737074A
:1021B00030F081E0DF91CF911F910F9108958B0155
:1021C0006F5F7F4F0E945129009759F09983888350
:1021D0001B830A832C813D81232B59F7FC0110823C
:1021E000E8CF80E0E7CFEF92FF920F931F93CF935A
:1021F000DF938C017B01FB0101900020E9F731970F
:10220000E61BF70BD1F0DC011496CD91DC91CE0FDB
:10221000DF1FBE010E94CB108823B9F0F801208196
:10222000318184819581B701820F931F0E94172A03
:10223000D8011596DC93CE931497C801DF91CF9106
:102240001F910F91FF90EF900895C8010E94B11067
:10225000F4CFEF92FF920F931F93CF93DF93EC0194
:102260007B018A01BA010E94CB1081110BC0CE0103
:102270000E94B110CE01DF91CF911F910F91FF907D
:10228000EF9008951D830C83B701888199810E9486
:10229000172AF0CFFB01DC0111961C921E921396B7
:1022A0001C921E92129715961C921E9214978617D6
:1022B000970749F0608171816115710521F04481B2
:1022C00055810C9429110895FC011182108213820A
:1022D000128215821482FB0101900020E9F73197E8
:1022E000AF01461B570B0C942911BF92CF92DF927E
:1022F000EF92FF920F931F93CF93DF93CDB7DEB78B
:102300002C970FB6F894DEBF0FBECDBF40E060E063
:1023100080918105909182050E94670862E272E0D7
:1023200080918105909182050E94DE0E68E771E040
:10233000CE0107960E9464114091B8055091B905ED
:102340004131510508F042C06091B4057091B50566
:10235000CE01079661157105B1F10E94291141E086
:1023600060E080918105909182050E946708BE011E
:10237000695F7F4F80918105909182050E94EF03F4
:10238000209192058091810590918205222309F484
:10239000A8C028E0FC01238760E00E949A07CE01D4
:1023A00007960E94C3102C960FB6F894DEBF0FBE9E
:1023B000CDBFDF91CF911F910F91FF90EF90DF90F4
:1023C000CF90BF9008950E94B110C9CFB090810402
:1023D0000B2D10E0680180E1C80ED11CC016D1069B
:1023E00028F09C2D8D2D6801092F182F68E771E0CA
:1023F000CE0101960E946411E090B805F090B905F5
:10240000CE14DF0450F50E151F0508F47801E09195
:10241000B405F091B505EE0DFF1D1081108260919D
:10242000B4057091B5056C0D7D1D6115710509F43C
:1024300040C0FB0101900020E9F73197AF01461B36
:10244000570BCE0101960E9429118091B4059091FD
:10245000B505E80EF91EF70110838F819885009766
:1024600079F169817A816115710541F149855A8552
:102470002D813E814217530708F10E94172A8D8152
:102480009E819C878B871E821D82CE0101960E94B1
:10249000C310B394B09281048091B8059091B905AE
:1024A0004097B816190609F008F459CF1092810424
:1024B00056CFCE0101960E94B110C7CF0E94C82806
:1024C00089819A8198878F838B819C819A8789875C
:1024D0008D819E819C878B871A8219821C821B8228
:1024E000D2CFFC01138658CF85ED8093BC0080913C
:1024F000B0049091B104A091B204B091B3040796D6
:10250000A11DB11D23E0B695A795979587952A95AE
:10251000D1F72091BC0024FD03C01092AE040895B1
:102520004091B0045091B1046091B2047091B30431
:10253000452B462B472B69F30097A105B10541F0C8
:102540002AE22A95F1F700C00197A109B109E1CF6C
:102550008091AF040C946D051F920F920FB60F92ED
:1025600011242F933F938F939F93AF93BF938091A9
:10257000790490917A04A0917B04B0917C0430910D
:10258000780423E0230F2D3758F50196A11DB11DC6
:10259000209378048093790490937A04A0937B0429
:1025A000B0937C0480917D0490917E04A0917F047F
:1025B000B09180040196A11DB11D80937D0490937C
:1025C0007E04A0937F04B0938004BF91AF919F914C
:1025D0008F913F912F910F900FBE0F901F901895E4
:1025E00026E8230F0296A11DB11DD2CF1F920F9294
:1025F0000FB60F9211242F933F934F935F936F93D6
:102600007F938F939F93AF93BF93EF93FF9388ED47
:1026100094E00E947B04FF91EF91BF91AF919F9155
:102620008F917F916F915F914F913F912F910F907B
:102630000FBE0F901F9018951F920F920FB60F921A
:1026400011242F938F939F93EF93FF93E091E804CE
:10265000F091E9048081E091EE04F091EF0482FDB5
:102660001BC090818091F1048F5F8F732091F204E1
:10267000821741F0E091F104F0E0E852FB4F958FB2
:102680008093F104FF91EF919F918F912F910F9083
:102690000FBE0F901F9018958081F4CF1F920F925C
:1026A0000FB60F9211242F933F934F935F936F9325
:1026B0007F938F939F93AF93BF93EF93FF938091FB
:1026C000B900887F803609F44AC0F0F5883209F4F1
:1026D000A7C018F5803109F49BC0B8F4882309F429
:1026E000F9C0883009F494C0FF91EF91BF91AF9188
:1026F0009F918F917F916F915F914F913F912F911A
:102700000F900FBE0F901F901895883109F488C064
:10271000803251F78093AC0414C0803409F49DC01A
:1027200040F48033B9F38833F9F68093AC0485EC38
:10273000B0C0803509F485C0883509F496C0883466
:1027400099F60E947412D0CF883909F48CC038F5FC
:10275000883729F050F4883611F0803729F683E065
:102760008093AE0410926F0457C0883809F47BC080
:10277000803919F0803809F0B7CF80916F0480322A
:1027800008F071C0E0916F0481E08E0F80936F04B8
:102790008091BB00F0E0E15BFB4F80833DC0803B5C
:1027A00039F0E0F4803A09F479C0883A09F09CCF16
:1027B00084E08093AE0410924E0410924D04E09198
:1027C0008404F0918504099580914D0481110FC016
:1027D00081E080934D0410922D0409C0803C09F4DF
:1027E000A6CF883C09F4A3CF883B09F07DCFE091C8
:1027F0004E0481E08E0F80934E04F0E0E35DFB4FCA
:1028000080818093BB0090914E0480914D0429C03B
:10281000809189048093BB0085EC8093BC0064CFD9
:102820009091AB048091AA04981758F5E091AB04FD
:1028300081E08E0F8093AB04F0E0E657FB4F808180
:10284000E9CFE091AB0481E08E0F8093AB048091DF
:10285000BB00F0E0E657FB4F80839091AB04809182
:10286000AA049817C8F285E8D8CFE091AB0481E0BC
:102870008E0F8093AB048091BB00F0E0E657FB4FD6
:1028800080838091AD0481115CCF81E080938804C6
:1028900084EA8093BC001092AE0426CF85EC80932E
:1028A000BC001092AE0480916F04803230F4E0914D
:1028B0006F04F0E0E15BFB4F108260916F0470E009
:1028C000E0918204F09183048FE494E009951092E2
:1028D0006F040ACF1092AC0434CFCF92DF92EF9204
:1028E000FF920F931F93E82FF92F05C00150110994
:1028F0002109310961F1908196239417B9F305C03C
:10290000015011092109310911F190819623941385
:10291000F7CFC12CD12CE12CF12C0AC08FEFC81AB3
:10292000D80AE80AF80A0C151D052E053F0579F0AE
:1029300080818623841791F36C2D7D2D8E2D9F2D04
:102940001F910F91FF90EF90DF90CF90089560E07E
:1029500070E080E090E01F910F91FF90EF90DF908A
:10296000CF900895CF92DF92EF92FF920F931F9333
:10297000CF93DF93E8EDF4E01382128288EEC82E45
:1029800083E0D82EE12CF12CC482D582E682F78236
:102990008AE491E09183808385EC90E09587848739
:1029A00084EC90E09787868780EC90E0918B808B19
:1029B00081EC90E0938B828B82EC90E0958B848B02
:1029C00086EC90E0978B868B118E128E138E148E70
:1029D0000E945605C5E7D5E01B821A82CC82DD82B3
:1029E000EE82FF828CE591E09983888317E2EBEC1D
:1029F000F5E0DF01812F1D928A95E9F78AEF9DEEC0
:102A0000ABE6BBE387A390A7A1A7B2A780E090E0C5
:102A1000A0E0B0E483A794A7A5A7B6A780E090E0C4
:102A2000A8E4B4E487A790ABA1ABB2AB07E0E3E2C4
:102A3000F6E0DF01802F1D928A95E9F788E3809305
:102A40002106FF24F394F0922006109222061092A1
:102A50002F06109230061092310610923206109214
:102A6000330688E0EEE0F1E0A5E6B6E001900D92D5
:102A70008A95E1F783E590E0909363068093620680
:102A8000D0932B06C0932A0610922C0610922D0686
:102A900010922E0682E090E00E942C282CE030E07C
:102AA000DC012D933C932BE030E030936E062093B5
:102AB0006D06CFE6D6E09983888381E090E090931D
:102AC00072068093710661E08BE00E94D901E88173
:102AD000F98160E080810E94D901E3E7F6E0DF013F
:102AE000802F1D928A95E9F7EAEBF5E086E0808376
:102AF00085E08183028313821482158284E690E04C
:102B0000908B87871686168217821086118612860A
:102B1000138614861586C1E8D5E01A821C821B82B2
:102B2000198A68E771E084EB95E00E9464118CE0FB
:102B300090E00E942C28FC01138212828EE691E024
:102B400091838083148380E1808782E0818712866D
:102B500088E08387F983E883E3E9F5E0DF011D92EC
:102B60001A95E9F7FEA6DF91CF911F910F91FF9083
:102B7000EF90DF90CF900895CF93DF93CDB7DEB77E
:102B8000A0970FB6F894DEBF0FBECDBF789484B582
:102B9000826084BD84B5816084BD85B5826085BD59
:102BA00085B5816085BD80916E00816080936E00E7
:102BB00010928100809181008260809381008091D9
:102BC000810081608093810080918000816080938A
:102BD00080008091B10084608093B1008091B0004A
:102BE00081608093B00080917A00846080937A0045
:102BF00080917A00826080937A0080917A0081606F
:102C000080937A0080917A00806880937A00109295
:102C1000C100E091E804F091E90482E08083E09152
:102C2000E404F091E5041082E091E604F091E704F9
:102C30008FEC80831092F004E091EC04F091ED04AD
:102C400086E08083E091EA04F091EB04808180616A
:102C50008083E091EA04F091EB04808188608083B6
:102C6000E091EA04F091EB04808180688083E09138
:102C7000EA04F091EB0480818F7D80830E945605E9
:102C800061E08BE00E94D90160E08CE00E94D901F4
:102C900060E08BE00E94720160E08EE00E94D9014A
:102CA00060E08FE00E94D9011092310680912C06DD
:102CB000882341F061E00E94D90160E080912C06F8
:102CC0000E94720180912D06882319F062E00E9413
:102CD000D90180912E06882341F061E00E94D9013C
:102CE00061E080912E060E9472010E94560580913B
:102CF0003106882321F083E492E00E94B40D6AE05B
:102D000070E080E090E00E94AF0310923206809164
:102D1000620690EF98A3AE01405E5F4F60E10E94B3
:102D2000650F182F80913106882371F06BE572E0F2
:102D300088ED94E00E94DE0E8AE892E0112311F003
:102D40008BEC91E00E94B40D6AE070E080E090E0CE
:102D50000E94AF0381E0111180E08093320622E0EF
:102D6000AE014F5F5F4F7A0160E0809162060E9482
:102D7000E00E09811A81809131068823A9F06CE662
:102D800072E088ED94E00E94DE0E83E892E0003667
:102D900051E0150739F0013681E0180709F097C0B6
:102DA0008DE892E00E94B40D6AE070E080E090E06F
:102DB0000E94AF03003691E0190709F08BC0109212
:102DC000330681E0809332068091620691E09F8F06
:102DD000AE01415E5F4F60E10E94650F182F809148
:102DE0003106882371F067E972E088ED94E00E9473
:102DF000DE0E8AE892E0112311F08BEC91E00E9444
:102E0000B40D6AE070E080E090E00E94AF0381E0E2
:102E1000111180E0809332060E94CD0F809332061C
:102E20000E94CD0F6AE070E080E090E00E94AF0366
:102E3000809162069EE09E8FAE01425E5F4F62E12E
:102E40000E94650F23E0A7016CE4809162060E9456
:102E5000E00E182F8981809334069A81909335066D
:102E60009B8190933606873008F4D6C591E0909305
:102E70003306909131069923F1F06AE070E00E94E8
:102E8000C70D6AE070E0809135060E94C70D6AE0C8
:102E900070E0809136060E94C70D63EB72E088ED0A
:102EA00094E00E94DE0E8AE892E0112311F08BEC90
:102EB00091E00E94B40D6AE070E080E090E00E9432
:102EC000AF0381E0111180E0809332060CC08BECDF
:102ED00091E068CF0136114021F481E08093330600
:102EE00071CF1092320680913106882321F08AEC4E
:102EF00092E00E94B40D80913206811190C58EED52
:102F000092E00E94B40D6AE070E080E090E00E94E0
:102F1000AF038091220681118AC50E947B098091AE
:102F20002206811184C50E943C0120E030E04CED76
:102F300052E40E94292587FF7AC50E947B0980916F
:102F40002206811174C50E940C0120E030E04CE89B
:102F500052E40E94292587FF6AC584EF92E00E940F
:102F6000B40D81E08093EC056AE070E080E090E0D1
:102F70000E94AF0386E090E00E942C286C0180E163
:102F8000F601808385E795E092838183138280E256
:102F900090E095838483D0921F06C0921E060E9403
:102FA000560511E0D60113961C93C6010E947507C1
:102FB000882309F441C585E190E00E942C286C012A
:102FC00080901E0690901F06FC01118A128A138AB7
:102FD000148A91828082138212821387118610864E
:102FE000148602E00287909303068093020685E12F
:102FF00090E00E942C28FC01118A128A138A148AFC
:103000009182808213821282138781E090E09187FF
:10301000808714860287F0930906E093080685E10D
:1030200090E00E942C28FC01118A128A138A148ACB
:103030009182808213821282138782E090E09187CE
:10304000808714860287F0930B06E0930A0685E1D9
:1030500090E00E942C285C01DC0151961D921D928B
:103060001D921C92549711969C928E9213961C92CC
:103070001E9212971B961C931B9783E090E0199663
:103080009C938E9318971C961C921C971A960C93DF
:10309000B0920D06A0920C0685E190E00E942C28CB
:1030A000FC01118A128A138A148A91828082138207
:1030B0001282138784E090E09187808714860287CC
:1030C000F0930506E093040685E190E00E942C2829
:1030D000FC01118A128A138A148A918280821382D7
:1030E0001282138785E090E091878087148602879B
:1030F000F0930706E093060685E190E00E942C28F5
:10310000FC01118A128A138A148A918280821382A6
:103110001282138786E090E0918780871486028769
:10312000F0930F06E0930E0684E090E00E942C28B6
:103130004C01FC01D182C08212831382909311064C
:103140008093100684E090E00E942C28FC01D1823C
:10315000C08212831383909313068093120684E037
:1031600090E00E942C28FC01D182C0820283A4E05E
:103170007A2E7382909315068093140684E090E073
:103180000E942C28FC01D182C082728286E0838357
:10319000F0931706E093160684E090E00E942C2836
:1031A000FC01D182C08202838BE08383F0931906F5
:1031B000E093180684E090E00E942C28FC01B18284
:1031C000A0821283138290931B0680931A0684E0D8
:1031D00090E00E942C28FC01B182A082028313831C
:1031E00090931D0680931C0641E050E060E070E083
:1031F000C4010E94FB0C40E050E0BA01809112062D
:10320000909113060E94FB0C40E050E0BA018091BF
:103210001406909115060E94FB0C42E050E060E01D
:1032200070E080911806909119060E94FB0C0E9494
:10323000E2036093FE057093FF0580930006909370
:1032400001060E94090C6C0140E050E0BA01809137
:103250001606909117060E94FB0CB601DD0C880B38
:10326000990B0E94AF030E94E2036093FE057093E6
:10327000FF05809300069093010640E050E0BA01FC
:1032800080911A0690911B060E94FB0C40E050E0D2
:10329000BA0180911006909111060E94FB0C65E026
:1032A00070E080E090E00E94AF030E94E203609330
:1032B000FE057093FF05809300069093010688E059
:1032C00093E00E94B40D20E040E157E260E070E03E
:1032D00080910A0690910B060E949C0620E040E136
:1032E00057E260E070E080910806909109060E9424
:1032F0009C0640E050E0BA018091120690911306BE
:103300000E94FB0C1093EB056AE070E080E090E017
:103310000E94AF038EE00E942B108093EE058FE099
:103320000E942B108093EF056AE070E080E090E04F
:103330000E94AF030E94680A811183C382E293E076
:103340000E94B40D61E08091BA050E94D90161E04C
:103350008091BB050E94D90161E08091BC050E946B
:10336000D90160E08091BA050E94720160E080910D
:10337000BB050E94720160E08091BC050E94720151
:1033800000918105109182050E945605D80115967D
:103390001C92159719968C911997823018F098E025
:1033A00015969C93F8019285992329F0813019F4A0
:1033B00085818460858362E370E080E090E00E9414
:1033C000AF03D8011B966C91C8010E949A0768EE62
:1033D00073E080E090E00E94AF0360E3C8010E94C8
:1033E00031087BE4C72E76E4D72EC6010197F1F7AA
:1033F00060E3C8010E943108C6010197F1F760E35C
:10340000C8010E94310883E592E00197F1F760E27C
:10341000C8010E943108F8016581606240E0C8017E
:103420000E944A0884E0D80116968C9340E06CE034
:10343000C8010E944A08C8010E94970882E0F8016A
:10344000878340E066E0C8010E944A0840E062E0ED
:10345000C8010E944A088BE39FE10197F1F7809130
:1034600081059091820528E0DC011B962C9360E099
:103470000E949A0780918105909182050E94970889
:1034800081E0809383050E94E20360938605709338
:10349000870580938805909389050E94E2036093D5
:1034A0008A0570938B0580938C0590938D050E94FF
:1034B000E20360938E0570938F058093900590933F
:1034C000910540E060E080918105909182050E9425
:1034D000670862E373E080918105909182050E9404
:1034E000DE0E41E060E080918105909182050E94AE
:1034F000670863E473E080918105909182050E94E2
:10350000DE0E6CED75E080E090E00E94AF038091EC
:103510008105909182050E94970863E2C62ED12C06
:103520000E94E203009174041091750420917604C6
:1035300030917704601B710B820B930B693E7340D3
:103540008105910508F407C28091EB05882391F16C
:103550006AE473E088ED94E00E94DE0E81E00E9450
:10356000B40C8C010E943B0C4B015C01B80190E053
:1035700080E00E942E25A50194010E948F250E94C3
:10358000C90E81E00E94B40C8C010E943B0C4B01DF
:103590005C01B80190E080E00E942E25A501940115
:1035A0000E948F256093CB057093CC058093CD0549
:1035B0009093CE058091EC05882309F440C066E520
:1035C00073E088ED94E00E94DE0E0E947B098091FA
:1035D000220681113EC20E940C010E94C90E0E9467
:1035E0007B0980912206811139C20E940C016093EF
:1035F000CF057093D0058093D1059093D20568E6EE
:1036000073E088ED94E00E94DE0E0E947B098091B9
:103610002206811128C20E943C010E94C90E0E940C
:103620007B0980912206811123C20E943C01609394
:10363000D7057093D8058093D9059093DA058091CA
:10364000ED058823D9F067E773E088ED94E00E94E8
:10365000DE0E6AE070E0809139060E94C70D60912D
:10366000390670E090E080E00E942E256093D3053B
:103670007093D4058093D5059093D6058091EE057F
:10368000882329F08EE00E9457108093E3058091F3
:10369000EF05882329F08FE00E9457108093E405FE
:1036A0008091F105882309F489C060E080916D065E
:1036B0000E94720183E090E00197F1F761E0809150
:1036C0006D060E947201C6010197F1F760E08091DA
:1036D0006D060E947201F894E0916F06F0917006F9
:1036E000808191819927FC01EC56FE4F6491FC0189
:1036F000E058FE4FE491F0E0EE0FFF1FEE59FE4F51
:103700008591949109EE1BE520E030E0462F0E9460
:103710006D14611571058105910529F06F5F7F4F6B
:103720008F4F9F4F9F7078940E942E2524E43BE496
:103730004BE652E40E94812720E030E040E251E471
:103740000E9481274B015C016CE370E080E090E017
:103750000E94AF038092DB059092DC05A092DD050C
:10376000B092DE05A501940160E070E080EF91E485
:103770000E9414274B015C0120E030E0A9010E9467
:10378000292587FD7AC120E030E040EF51E4C501F2
:10379000B4010E94222818160CF473C120E030E511
:1037A00045EF55E4C501B4010E948F256093DF0504
:1037B0007093E0058093E1059093E2058091F00518
:1037C000882309F440C00E94680A882309F460C174
:1037D0004AE050E06091750688ED94E00E94AD0DDE
:1037E00062ED73E088ED94E00E94DE0E4AE050E066
:1037F0006091740688ED94E00E94AD0D62ED73E077
:1038000088ED94E00E94DE0E6AE070E0809173061D
:103810000E94C70D809173068093E705809174061E
:103820008093E605809175068093E5058091770683
:103830008093E805809178068093E9058091790668
:103840008E548093EA058091CF059091D005A09188
:10385000D105B091D2058093990590939A05A093D4
:103860009B05B0939C058091D7059091D805A091B8
:10387000D905B091DA0580939D0590939E05A0939C
:103880009F05B093A0058091E3058093A1058091E9
:10389000E4058093A2058091CB059091CC05A09181
:1038A000CD05B091CE058093A3059093A405A09378
:1038B000A505B093A6058091DF059091E005A09144
:1038C000E105B091E2058093A7059093A805A09328
:1038D000A905B093AA058091D3059091D405A09134
:1038E000D505B091D6058093AB059093AC05A09318
:1038F000AD05B093AE058091E6059091E5059093F6
:103900009305809394058091BD058093B0058091C7
:10391000BE058093B1058091BF058093B20580916B
:10392000EA0590E02091E9053091E805309395058E
:1039300020939605909398058093970581E0809356
:10394000AF050E94E2036093740470937504809342
:1039500076049093770480918305882309F420C12D
:103960000E94E2034B015C018091860590918705DE
:10397000A0918805B0918905A5019401281B390BF8
:103980004A0B5B0BDA01C90181349F41A105B105E6
:10399000F8F08091B305811113C080918405909156
:1039A0008505019665E070E00E94F32690938505F9
:1039B0008093840580918105909182050E949708EB
:1039C0008092860590928705A0928805B09289051D
:1039D00080918A0590918B05A0918C05B0918D0501
:1039E000A5019401281B390B4A0B5B0BDA01C901B5
:1039F000893E9340A105B10508F4AFC080918105CF
:103A0000909182050E9497088091B305882309F45C
:103A100042C00E9475114FC0109233062ACA8AEE26
:103A200092E00E94B40D81E08093ED056CCA8DEFA9
:103A300092E00E94B40D98CA84E193E00E94B40D14
:103A400063CC8BE293E00E94B40D81E08093F0059B
:103A500079CC60E070E08FE793E4BFCD60E070E088
:103A60008FE793E4C4CD60E070E08FE793E4D5CDB9
:103A700060E070E08FE793E4DACD812C912C540163
:103A80008DCE812C912C40EFA42E41E4B42E86CE15
:103A90001092F005D8CE80918405909185058230F2
:103AA000910509F4A9C208F066C1009709F46DC137
:103AB000019709F4E1C18091B305811146C040E04E
:103AC0006FE080918105909182050E9467082091A6
:103AD000AF05809181059091820562E074E021112B
:103AE00002C064E074E00E94DE0E41E06FE080916D
:103AF0008105909182050E9467082091B30580910D
:103B00008105909182056AE272E021111CC020912A
:103B1000B20566E074E0211116C02091B0052223A1
:103B200031F02091920568E074E021110CC02091E1
:103B3000B105222331F0209192056AE074E0211151
:103B400002C065ED73E00E94DE0E80928A059092BD
:103B50008B05A0928C05B0928D0580918E05909179
:103B60008F05A0919005B0919105A5019401281BA6
:103B7000390B4A0B5B0BDA01C901853F9140A10566
:103B8000B10570F08091920591E0892780939205AC
:103B900080928E0590928F05A0929005B09291052B
:103BA0008091BF058823E1F08091C8058823C1F08A
:103BB0000E94E2030091C0051091C1052091C20549
:103BC0003091C305601771078207930708F065C439
:103BD0006093C0057093C1058093C2059093C3059F
:103BE0000E94E2030091700410917104209172040C
:103BF00030917304601B710B820B930B6131774220
:103C00008105910508F4A4C00E94E203609370044A
:103C10007093710480937204909373048090CB0529
:103C20009090CC05A090CD05B090CE0520E030E07E
:103C300048E452E4C501B4010E94292587FD06C06D
:103C40008091E50588508D3008F443C48091BD050E
:103C5000811186C481E08093BD0561E08091BA0541
:103C60000E9472018090CF059090D005A090D10560
:103C7000B090D20520E030E040EE51E4C501B4013F
:103C80000E94222818160CF120E030E046E952E4A8
:103C90006091D7057091D8058091D9059091DA058A
:103CA0000E94222818168CF020E030E040E752E411
:103CB0006091D3057091D4058091D5059091D6057A
:103CC0000E94222818160CF018C48091BE0581119C
:103CD00053C481E08093BE0561E08091BB050E94E2
:103CE00072018091E40590E0969587952091E30517
:103CF000820F911D8D9760F58091BF05811128C0BD
:103D00002091C9053091CA0550E040E060E87DE8A7
:103D10008BE590E00E94AE262093C4053093C50544
:103D20004093C6055093C7050E94E2036093C00507
:103D30007093C1058093C2059093C30581E0809381
:103D4000C8058093BF0561E08091BC050E947201A7
:103D500062E370E080E090E00E94AF0380E090E0DA
:103D6000892B09F4DDCB0E946704882309F4D5CBA5
:103D70000E940000D2CB8430910509F417C308F4E7
:103D8000BFC1059709F445CE96CE40E060E0809132
:103D90008105909182050E9467086DE773E080912C
:103DA0008105909182050E94DE0E0091810510919F
:103DB0008205809194051F928F93809193051F92A5
:103DC0008F9384E893E09F938F93FF92EF920E94EA
:103DD0001E2AB701CE010C960E946411BE01645FD9
:103DE0007F4FC8010E94EF03CE010C960E94C310C2
:103DF00041E060E080918105909182050E94670812
:103E00006EE873E080918105909182050E94DE0E3C
:103E100000918105109182058091970590919805F8
:103E200064E670E00E94DF2608979F938F9380914D
:103E300096051F928F93809195051F928F9385E928
:103E400093E09F938F93FF92EF920E941E2AB701F7
:103E5000CE010C960E946411BE01645F7F4FC801C1
:103E60000E94EF03CE010C960E94C3100FB6F89487
:103E7000DEBF0FBECDBF1FCE40E060E08091810568
:103E8000909182050E94670864EA73E08091810541
:103E9000909182050E94DE0E6090810570908205EF
:103EA0006091990570919A0580919B0590919C0570
:103EB000870121E044E00E94D422B701CE010C9694
:103EC0000E946411BE01645F7F4FC3010E94EF0333
:103ED000CE010C960E94C31067EA73E080918105C1
:103EE000909182050E94DE0E40E068E0809181059D
:103EF000909182050E94670869EA73E080918105CC
:103F0000909182050E94DE0E60908105709082057E
:103F100060919D0570919E0580919F059091A005EF
:103F200020E043E00E94D422B701CE010C960E940B
:103F30006411BE01645F7F4FC3010E94EF03CE0195
:103F40000C960E94C3106CEA73E0809181059091F9
:103F500082050E94DE0E41E060E080918105909133
:103F600082050E9467086EEA73E080918105909156
:103F700082050E94DE0E4091AB055091AC05609128
:103F8000AD057091AE0520E080918105909182058C
:103F90000E94DB0D41E069E08091810590918205EE
:103FA0000E9467084090AB055090AC056090AD054D
:103FB0007090AE0520E030E048E452E4C301B20165
:103FC0000E942925009181051091820563EB73E021
:103FD00087FD0EC020E030E048EC52E4C301B2019E
:103FE0000E94292568EB73E087FD02C06DEB73E04A
:103FF000C8010E94DE0E5FCD0091A1058091A2054F
:10400000080F1127111F1595079540E060E080917A
:104010008105909182050E94670862EC73E08091AF
:104020008105909182050E94DE0E41E060E0809162
:104030008105909182050E94670860ED73E0809190
:104040008105909182050E94DE0E4AE050E0609169
:10405000A10580918105909182050E94AD0D64EDCE
:1040600073E080918105909182050E94DE0E41E00F
:1040700068E080918105909182050E94670867ED54
:1040800073E080918105909182050E94DE0E4AE0E6
:1040900050E06091A20580918105909182050E9477
:1040A000AD0D6CEA73E080918105909182050E94CC
:1040B000DE0E41E06EE080918105909182050E94C4
:1040C000670825E030E0D8010E94072724E630E0A9
:1040D00040E050E00E944D266FE3263028F4E22FA6
:1040E000F0E0EA5EFE4F608180918105909182054B
:1040F000DC01ED91FC910190F081E02D0995DBCC84
:1041000040E060E080918105909182050E946708FF
:104110006BED73E080918105909182050E94DE0E27
:1041200060908105709082052090A3053090A405D1
:104130004090A5055090A60520E030E04AE754E401
:10414000C201B1010E94292587FFAEC0870120E08E
:1041500044E0C201B1010E94D422B701CE010C9605
:104160000E946411BE01645F7F4FCE0142960E949F
:104170004A1164EE73E0CE0142960E94F310BC0136
:10418000CE0148960E944A11CE0142960E94C31069
:10419000CE010C960E94C310BE01685E7F4FC30122
:1041A0000E94EF03CE0148960E94C31041E060E0F8
:1041B00080918105909182050E94670867EE73E007
:1041C00080918105909182050E94DE0E60908105AC
:1041D000709082052090A7053090A8054090A90511
:1041E0005090AA0520E030E04AE754E4C201B10152
:1041F0000E94292587FF74C0870120E044E0C201A6
:10420000B1010E94D422B701CE010C960E94641124
:10421000BE01645F7F4FCE0142960E944A116FEE4D
:1042200073E0CE0142960E94F310BC01CE01489685
:104230000E944A11CE0142960E94C310CE010C96F4
:104240000E94C310BE01685E7F4FC3010E94EF034E
:10425000CE0148960E94C31041E06EE08091810536
:10426000909182050E9467084090A7055090A8058C
:104270006090A9057090AA0520E030E04AEF54E470
:10428000C301B2010E94222800918105109182058C
:1042900018160CF041C0D801ED91FC910190F0810D
:1042A000E02D65E0C8012ACF20E030E04AE754E481
:1042B000C201B1010E948127870121E044E00E94F0
:1042C000D422B701CE010C960E946411BE01645F36
:1042D0007F4FCE0142960E944A1163EE73E04BCFAE
:1042E00020E030E04AE754E4C201B1010E94812796
:1042F000870121E044E00E94D422B701CE010C9650
:104300000E946411BE01645F7F4FCE0142960E94FD
:104310004A1160E273E085CF20E030E04AE754E4E0
:10432000C301B2010E942228181644F4D801ED916D
:10433000FC910190F081E02D64E0B4CF20E030E00A
:104340004AEF53E4C301B2010E942228181644F434
:10435000D801ED91FC910190F081E02D63E0A2CFB6
:1043600020E030E048EC52E4C301B2010E94222870
:10437000181644F4D801ED91FC910190F081E02DE4
:1043800062E090CF20E030E0A901C301B2010E94B9
:104390002228181644F4D801ED91FC910190F08187
:1043A000E02D61E07FCF6AE272E022CE40E060E083
:1043B00080918105909182050E94670862EF73E009
:1043C00080918105909182050E94DE0E8091810589
:1043D000909182052091AF056CE272E0211102C03C
:1043E00061E372E00E94DE0E41E060E080918105B1
:1043F000909182050E94670869EF73E080918105C2
:10440000909182050E94DE0E809181059091820537
:104410002091B00568E372E0211102C06CE372E004
:104420000E94DE0E41E065E0809181059091820559
:104430000E9467086CEF73E080918105909182057E
:104440000E94DE0E80918105909182052091B10538
:1044500068E372E0211102C06CE372E00E94DE0E9C
:1044600041E06AE080918105909182050E94670891
:104470006FEF73E080918105909182050E94DE0EBE
:1044800080918105909182052091B20560E472E0EF
:104490002111AFCD6CE372E0ACCD601B710B820BD0
:1044A000930B0091C4051091C5052091C60530916C
:1044B000C705601771078207930708F491CB109224
:1044C000BF0560E08091BC050E9472011092C80592
:1044D00087CB20E030E04AEF53E4C501B4010E94ED
:1044E000222818160CF0BECB8091BD05882309F454
:1044F000B9CB1092BD0560E0B1CB20E030E048ECD4
:1045000051E4C501B4010E94292587FD20C020E0A7
:1045100030E040E752E46091D7057091D805809172
:10452000D9059091DA050E94292587FD10C020E069
:1045300030E048E452E46091D3057091D405809155
:10454000D5059091D6050E94292587FFCACB809179
:10455000BE05882309F4C5CB1092BE0560E0BDCB33
:1045600020E030E04AEF53E4C501B4010E94222864
:1045700018160CF077CBBDCF20E030E048EC51E4CA
:10458000C501B4010E94292587FFC1CFE5CF84EB87
:1045900095E00E94C31080916F069091700600977D
:1045A00011F00C94C8280895EF920F931F93CF93A6
:1045B000DF93E80134E047FD34E1042E000C550B95
:1045C00057FF03C0519541955109E32E022F242F27
:1045D000AE010E94F222CE01DF91CF911F910F9187
:1045E000EF900895A9E0B0E0E8EFF2E20C947D26A8
:1045F0006A01F22EB02E102FFBE3AF2EA01608F4A6
:104600001BE31F5F012F27E0AE014F5F5F4F0E944A
:104610005124BC018981982F9970913009F43FC0D1
:104620009BE2E1FC04C09E2D9170E0FC3AC05E2D3F
:104630005071E82FE87083FF46C084E0911101C0FB
:1046400083E0EF2DE81B8F1508F0E0E0D6018E2FF8
:1046500020E2552351F1992329F0D6019C93C601FC
:1046600001966C0196012D5F3F4FE2FE24C08EE45F
:10467000D6018C9391E411969C93119712968C938A
:10468000D9018E2F90E281111BC0E20FF32FF11D93
:1046900010828EEF9FEF2996ECE00C9499269DE214
:1046A000C6CF90E2C4CF2D9381508111FCCFCE0EA6
:1046B000D11CE0E0D0CF8EE6D6018C9391E6DBCF23
:1046C0009D938150E0CF482F447082FF3DC084E02D
:1046D000911101C083E08F1510F4EF2DE81BD60176
:1046E0008E2F20E2552309F1992329F0D6019C93BE
:1046F000C60101966C0196012D5F3F4FE2FE1BC083
:1047000089E4D6018C938EE411968C93119786E4FC
:1047100012968C93D9018E2F90E2882309F4B5CF9D
:104720009D938150FACF2D9381508111FCCFCE0EF5
:10473000D11CE0E0D9CF89E6D6018C938EE61196A4
:104740008C93119786E6E4CF9B0177FF02C030E09F
:1047500020E0A1E0B0E0911102C0B0E0A0E0F901DA
:104760003196AE0FBF1F8B2C912CBB2009F461C07A
:104770005401EFEFAE1ABE0AAA0DBB1DFA161B06B6
:1047800019F014F04F2D4A1B511188C0E3FC59C099
:104790007601A42FB0E2A1114FC0C40ED11C992301
:1047A00009F45BC040E0D6011196F60190836D01DB
:1047B000552309F448C0012F060F9A81582F5071D4
:1047C00084FF03C0913309F4015010160CF047C068
:1047D000093008F008E0EEE2FE2E5B01A01AB108F5
:1047E00085019194819491082F3F320729F4D601D5
:1047F000FC92F60131966F016217730794F102176C
:1048000013077CF5DB01A21BB30BAA24A394B12CE4
:10481000AC0EBD1EAA0DBB1D11968C912150310905
:10482000D601119628153905F4F0F60180836D0143
:10483000DBCFB12CA12CA0CFF701B1937F01A15008
:10484000AACF9111B0CFD601942F50E302C05D934F
:1048500091509111FCCFC40ED11C40E0ACCF01E0CF
:10486000BACF80E3DBCF6217730731F4963388F455
:10487000953311F4552369F0F6018083FD01842FEF
:1048800090E2811108C0A40FB11D1C9290E080E05D
:1048900002CF81E3F1CF91938150F3CF911183CF78
:1048A0008ACF283008F027E03327DA01990F311D2D
:1048B00087FD916000966105710539F432602E5FC5
:1048C0003D9330E32A95E1F708959F3F30F080381B
:1048D0007105610509F03C5F3C5F3D93913008F044
:1048E0008068911DDF93CF931F930F93FF92EF92F8
:1048F000192F987F9695E92F96959695E90FFF27A2
:10490000EE53FF4F99273327EE24FF24A701E70139
:1049100005900894079428F4360FE71EF81E491FE7
:10492000511D660F771F881F991F0694A1F70590E8
:10493000079428F4E70EF81E491F561FC11D770F74
:10494000881F991F661F0694A1F70590079428F405
:10495000F80E491F561FC71FD11D880F991F661FCC
:10496000771F0694A1F70590079420F4490F561F6E
:10497000C71FD81F990F661F771F881F0694A9F7B6
:1049800084911095177041F0D695C7955795479526
:10499000F794E7941A95C1F7E8E6F0E0689415906B
:1049A000159135916591959105907FE27395E11888
:1049B000F10A430B560BC90BD009C0F7E10CF11EED
:1049C000431F561FC91FD01D7EF4703311F48A9502
:1049D000E6CFE894015030F0080F0AF400270217E0
:1049E00008F4202F2395022F7A3328F079E37D9362
:1049F0002A95E9F710C07D932A9589F60694979534
:104A00006795379517951794E118F10A430B560BE4
:104A1000C90BD00998F023957E9173957A3308F0ED
:104A200070E37C932013B8F77E9170617D9330F032
:104A3000839571E37D9370E32A95E1F71124EF905C
:104A4000FF900F911F91CF91DF91992787FD90954E
:104A500008950E946B2508F481E00895E89409C048
:104A600097FB3EF490958095709561957F4F8F4FA1
:104A70009F4F9923A9F0F92F96E9BB279395F695B7
:104A8000879577956795B795F111F8CFFAF4BB0F35
:104A900011F460FF1BC06F5F7F4F8F4F9F4F16C099
:104AA000882311F096E911C0772321F09EE8872F23
:104AB000762F05C0662371F096E8862F70E060E0DF
:104AC0002AF09A95660F771F881FDAF7880F969558
:104AD000879597F90895990F0008550FAA0BE0E8FC
:104AE000FEEF16161706E807F907C0F012161306B0
:104AF000E407F50798F0621B730B840B950B39F4F0
:104B00000A2661F0232B242B252B21F408950A2655
:104B100009F4A140A6958FEF811D811D08950E9483
:104B2000A2250C9413260E94052638F00E940C261C
:104B300020F0952311F00C94FC250C9402261124EE
:104B40000C9447260E94242670F3959FC1F3950F7D
:104B500050E0551F629FF001729FBB27F00DB11D01
:104B6000639FAA27F00DB11DAA1F649F6627B00D91
:104B7000A11D661F829F2227B00DA11D621F739F7A
:104B8000B00DA11D621F839FA00D611D221F749F88
:104B90003327A00D611D231F849F600D211D822FCF
:104BA000762F6A2F11249F5750409AF0F1F08823F6
:104BB0004AF0EE0FFF1FBB1F661F771F881F915023
:104BC0005040A9F79E3F510580F00C94FC250C94B1
:104BD00047265F3FE4F3983ED4F386957795679533
:104BE000B795F795E7959F5FC1F7FE2B880F911D4D
:104BF0009695879597F9089597F99F6780E870E0F3
:104C000060E008959FEF80EC089500240A94161642
:104C1000170618060906089500240A9412161306AA
:104C2000140605060895092E0394000C11F4882338
:104C300052F0BB0F40F4BF2B11F460FF04C06F5F54
:104C40007F4F8F4F9F4F089557FD9058440F551F2A
:104C500059F05F3F71F04795880F97FB991F61F0FE
:104C60009F3F79F087950895121613061406551F75
:104C7000F2CF4695F1DF08C0161617061806991FE1
:104C8000F1CF86957105610508940895E894BB27D6
:104C900066277727CB0197F90895052E97FB1EF419
:104CA00000940E94642657FD07D00E94AE2607FCA0
:104CB00003D04EF40C946426509540953095219580
:104CC0003F4F4F4F5F4F0895909580957095619538
:104CD0007F4F8F4F9F4F08950E94D026A59F900D24
:104CE000B49F900DA49F800D911D112408952F92C3
:104CF0003F924F925F926F927F928F929F92AF926C
:104D0000BF92CF92DF92EF92FF920F931F93CF93B8
:104D1000DF93CDB7DEB7CA1BDB0B0FB6F894DEBF4F
:104D20000FBECDBF09942A88398848885F846E8475
:104D30007D848C849B84AA84B984C884DF80EE80BF
:104D4000FD800C811B81AA81B981CE0FD11D0FB6C8
:104D5000F894DEBF0FBECDBFED010895A1E21A2E7B
:104D6000AA1BBB1BFD010DC0AA1FBB1FEE1FFF1F0F
:104D7000A217B307E407F50720F0A21BB30BE40B5F
:104D8000F50B661F771F881F991F1A9469F76095A6
:104D90007095809590959B01AC01BD01CF01089560
:104DA000A29FB001B39FC001A39F700D811D11246C
:104DB000911DB29F700D811D1124911D0895AA1B94
:104DC000BB1B51E107C0AA1FBB1FA617B70710F0F6
:104DD000A61BB70B881F991F5A95A9F78095909528
:104DE000BC01CD01089597FB072E16F4009407D05F
:104DF00077FD09D00E94DF2607FC05D03EF4909590
:104E000081959F4F0895709561957F4F08950E94F9
:104E1000D026B7FF0895821B930B0895EE0FFF1F56
:104E20000590F491E02D09945058BB27AA270E94C1
:104E30002C270C9413260E94052638F00E940C267D
:104E400020F039F49F3F19F426F40C9402260EF456
:104E5000E095E7FB0C94FC25E92F0E94242658F3EB
:104E6000BA17620773078407950720F079F4A6F54F
:104E70000C9446260EF4E0950B2EBA2FA02D0B01B4
:104E8000B90190010C01CA01A0011124FF27591B8F
:104E900099F0593F50F4503E68F11A16F040A22F95
:104EA000232F342F4427585FF3CF46953795279506
:104EB000A795F0405395C9F77EF41F16BA0B620B05
:104EC000730B840BBAF09150A1F0FF0FBB1F661F4C
:104ED000771F881FC2F70EC0BA0F621F731F841F8F
:104EE00048F4879577956795B795F7959E3F08F0B5
:104EF000B0CF9395880F08F09927EE0F9795879577
:104F000008950E9495270C9413260E940C2658F0B1
:104F10000E94052640F029F45F3F29F00C94FC25FF
:104F200051110C9447260C9402260E94242668F303
:104F30009923B1F3552391F3951B550BBB27AA2752
:104F400062177307840738F09F5F5F4F220F331F8C
:104F5000441FAA1FA9F335D00E2E3AF0E0E832D054
:104F600091505040E695001CCAF72BD0FE2F29D057
:104F7000660F771F881FBB1F261737074807AB0729
:104F8000B0E809F0BB0B802DBF01FF2793585F4F9E
:104F90003AF09E3F510578F00C94FC250C9447267E
:104FA0005F3FE4F3983ED4F3869577956795B79580
:104FB000F7959F5FC9F7880F911D9695879597F98B
:104FC0000895E1E0660F771F881FBB1F6217730704
:104FD0008407BA0720F0621B730B840BBA0BEE1F19
:104FE00088F7E09508950E942C2688F09F5798F046
:104FF000B92F9927B751B0F0E1F0660F771F881FDE
:10500000991F1AF0BA95C9F714C0B13091F00E94F7
:105010004626B1E008950C944626672F782F8827FE
:10502000B85F39F0B93FCCF3869577956795B3951E
:10503000D9F73EF490958095709561957F4F8F4F8D
:105040009F4F08950E946B2508F48FEF08950E94EA
:105050006B25880B990B08950F931F93CF93DF93C4
:105060008230910510F482E090E0E0917C06F091AE
:105070007D0630E020E0B0E0A0E0309799F4211503
:10508000310509F44AC0281B390B24303105D8F505
:105090008A819B816115710589F1FB01938382836C
:1050A000FE0111C0408151810281138148175907C7
:1050B000E0F04817590799F4109761F012960C9395
:1050C000129713961C933296CF01DF91CF911F91C7
:1050D0000F91089500937C0610937D06F4CF21155F
:1050E000310551F04217530738F0A901DB019A014D
:1050F000BD01DF01F801C1CFEF01F9CF90937D062B
:1051000080937C06CDCFFE01E20FF31F8193919334
:105110002250310939832883D7CF20917A063091E4
:105120007B06232B41F4209102013091030130933F
:105130007B0620937A062091000130910101211510
:10514000310541F42DB73EB740910401509105015E
:10515000241B350BE0917A06F0917B06E217F307EA
:10516000A0F42E1B3F0B2817390778F0AC014E5FD7
:105170005F4F2417350748F04E0F5F1F50937B0693
:1051800040937A06819391939FCFF0E0E0E09CCF2B
:10519000CF93DF930097E9F0FC01329713821282DC
:1051A000A0917C06B0917D06ED0130E020E01097E3
:1051B000A1F420813181820F931F20917A063091D2
:1051C0007B062817390709F061C0F0937B06E0934E
:1051D0007A06DF91CF910895EA01CE17DF07E8F54F
:1051E0004A815B819E0141155105B1F7E901FB83BD
:1051F000EA8349915991C40FD51FEC17FD0761F45B
:10520000808191810296840F951FE901998388839B
:10521000828193819B838A83F0E0E0E012968D91F6
:105220009C9113970097B9F52D913C911197CD0161
:105230000296820F931F20917A0630917B062817E1
:10524000390739F6309751F510927D0610927C0699
:10525000B0937B06A0937A06BCCFD383C2834081F0
:105260005181840F951FC817D90761F44E5F5F4FB6
:1052700088819981480F591F518340838A819B817E
:10528000938382832115310509F0B0CFF0937D0619
:10529000E0937C069ECFFD01DC01C0CF1382128219
:1052A000D7CFB0E0A0E0E7E5F9E20C9479268C01D5
:1052B000009751F4CB010E942C288C01C801CDB776
:1052C000DEB7E0E10C949526FC01E60FF71F9C0188
:1052D00022503109E217F30708F49DC0D901CD919E
:1052E000DC911197C617D70798F0C530D10530F378
:1052F000CE0104978617970708F3C61BD70B229792
:10530000C193D1936D937C93CF010E94C828D6CFCF
:105310005B01AC1ABD0A4C018C0E9D1EA0917C064F
:10532000B0917D06512C412CF12CE12C109731F5D8
:1053300080917A0690917B068815990509F05CC0EA
:105340004616570608F058C080910001909101015F
:10535000009741F48DB79EB740910401509105012B
:10536000841B950BE817F90708F055C0F0937B06EE
:10537000E0937A06F90171836083A0CF8D919C91AF
:10538000119712966C90129713967C901397A8150C
:10539000B90559F56C0142E0C40ED11CCA14DB04F6
:1053A00020F1AC014A195B09DA011296159780F0D9
:1053B0006282738251834083D9016D937C93E1149F
:1053C000F10471F0D7011396FC93EE93129776CF08
:1053D00022968C0F9D1FF90191838083F301EFCFFB
:1053E000F0937D06E0937C0669CF4816590608F4D1
:1053F0002C017D01D3019ACFCB010E942C287C0186
:10540000009749F0AE01B8010E940E2AC8010E941F
:10541000C828870153CF10E000E050CFFB01DC012A
:1054200002C001900D9241505040D8F70895FB0101
:10543000DC0101900D920020E1F70895AEE0B0E0AC
:10544000E4E2FAE20C9485260D891E8986E08C83BD
:105450001A8309838FEF9FE79E838D83AE01475E9A
:105460005F4F6F89788DCE0101960E94412A2F816E
:105470003885020F131FF80110822E96E4E00C9479
:10548000A126ABE0B0E0E7E4FAE20C9477267C01D9
:105490003B018A01FC0117821682838181FFC8C10A
:1054A000CE0101965C01F7019381F30193FD859193
:1054B00093FF81913F01882309F453C1853239F468
:1054C00093FD859193FF81913F01853229F4B701C6
:1054D00090E00E94312CE7CF912C212C312CFFE160
:1054E000F31538F08B3211F190F4803209F18332E8
:1054F00029F137FC3CC020ED280F2A3050F536FE4C
:1055000020C08AE0989E200D1124922E06C08D3274
:1055100091F0803371F7689430F8F30193FD859131
:1055200093FF81913F018111DACF21C0689431F856
:10553000689432F8F2CF689433F8EFCF689434F877
:10554000ECCFEAE02E9E200D1124222E689435F82F
:10555000E4CF8E3229F436FC04C1689436F8DDCFEE
:105560008C3619F4689437F8D8CF8836B1F2982F72
:105570009F7D95549330E0F08336A1F18337C1F1DC
:10558000833509F063C02801F2E04F0E511CF80189
:10559000C080D180692D70E036FC02C06FEF7FEFD4
:1055A000C6010E941B2C4C01689437F882010AC086
:1055B0000C5F1F4FFFE3F98388248394912C6501CE
:1055C000E89437F833FE2DC0522C8114910471F504
:1055D000552009F468CFB70180E290E00E94312C99
:1055E0005A94F6CFF801808189830E5F1F4FE4CF74
:1055F0002801F2E04F0E511CF801C080D180692DC6
:1056000070E036FC02C06FEF7FEFC6010E94262CCF
:105610004C018201D5CFB70180E290E00E94312C8D
:105620002A942814190409F0B0F7CECFF60137FCFC
:10563000859137FE81916F01B70190E00E94312C76
:1056400051105A94F1E08F1A9108BFCF843619F0A7
:10565000893609F077C0F80137FE6BC0608171812F
:10566000828193810C5F1F4FF32DFF763F2E97FFB2
:1056700009C090958095709561957F4F8F4F9F4F92
:10568000689437F82AE030E0A5010E94612CC82E0A
:10569000CA188C2C432C36FE0CC0E89440F8C91470
:1056A00040F434FE05C032FC03C0F32DFE7E4F2EC5
:1056B000892C44FE95C0FE01EC0DF11D80818033E4
:1056C00009F087C0242D297E422E842D8870582E03
:1056D00043FC95C040FE8FC09C2C821418F42C0C07
:1056E000922C981844FE91C0B70180E390E00E948C
:1056F000312C42FE09C088E790E041FE02C088E5F7
:1057000090E0B7010E94312CC91408F48AC0CA94F1
:10571000D12C9FEFC91AD90ACA0CDB1CF601829161
:105720006F01B70190E00E94312CAC14BD04B1F7B9
:105730004FCF60817181072E000C880B990B0E5F93
:105740001F4F92CFD32CE894D4F82AE030E085376D
:1057500039F1232D297FD22E8F3601F148F4883577
:10576000A9F0F701868197812B96E2E10C949326AC
:10577000803749F08837A9F7D4FE02C06894D2F880
:1057800020E130E00DC06894D4F8F6CF34FE03C0B9
:10579000822F8660D82E20E132E002C028E030E07F
:1057A000F801D7FE0FC060817181828193810C5F07
:1057B0001F4FA5010E94612CC82ECA183D2CE894E9
:1057C00037F867CF6081718190E080E00E5F1F4FF6
:1057D000F0CF42FC02C0839478CF8394839475CF3A
:1057E000842D867809F471CFF6CFB70180E290E07E
:1057F0000E94312C83948214C0F3512C73CF522C0D
:105800005818821408F46ECFF8CF842D867809F4E6
:105810007BCF8BE241FE80E247FC8DE2B70190E056
:1058200071CFB70180E390E00E94312C9A946CCF45
:105830008FEF9FEF99CFFC010590615070400110F0
:10584000D8F7809590958E0F9F1F0895FC016150A9
:10585000704001900110D8F7809590958E0F9F1F92
:1058600008950F931F93CF93DF93182F092FEB0108
:105870008B8181FD09C01FEF0FEF812F902FDF91EA
:10588000CF911F910F91089582FF14C02E813F8107
:105890008C819D81281739073CF4E881F981CF017B
:1058A00001969983888310838E819F8101969F83BF
:1058B0008E83E3CFE885F985812F0995892BA1F3A4
:1058C000DACFFA01AA27283051F1203181F1E8948A
:1058D0006F936E7F6E5F7F4F8F4F9F4FAF4FB1E0E3
:1058E0003ED0B4E03CD0670F781F891F9A1FA11DDE
:1058F000680F791F8A1F911DA11D6A0F711D811DDF
:10590000911DA11D20D009F468943F912AE0269FA3
:1059100011243019305D3193DEF6CF010895462F02
:105920004770405D4193B3E00FD0C9F7F6CF462FE3
:105930004F70405D4A3318F0495D31FD405241934C
:1059400002D0A9F7EACFB4E0A69597958795779509
:105950006795BA95C9F700976105710508959B0190
:10596000AC010A2E06945795479537952795BA9519
:10597000C9F7620F731F841F951FA01D089510E0C3
:10598000CFEDD0E004C0FE010E940E272196C03E5C
:08599000D107C9F7F894FFCF1D
:1059980000007E06800000004000140054007C0ACD
:1059A8007EAFAFA200802001020304050000803F03
:1059B800000000400000003E0000803E6400C80077
:1059C80090012003FFFFFFFFFFFFFFFF3200FFFFF3
:1059D800FFFFFFFF1900000000009D04FD032A04DB
:1059E800EA045B0439044D0400000000FF07D207F5
:1059F8002E08AF073501BF07B00700000000610897
:105A0800FD032E08EE030D0A006E616E00696E66D6
:105A1800006F7666004932432072656164206164D4
:105A280064726573733A20307800202D20726567A0
:105A380069737465723A203078004932432077726E
:105A480069746520616464726573733A2030780004
:105A5800202D202076616C75653A006E6F6B0063AF
:105A68006C656172436F6D6D616E64282920726583
:105A780073756C743A2000636C656172436F6D6D69
:105A8800616E642829207374617475733A203078C4
:105A980000536F696C2073656E736F72206F6E2090
:105AA80070696E2000207261772076616C75653AA6
:105AB800200021204552524F522021004175746F19
:105AC800004D616E75616C004F4E20004F464600D8
